:020000040800F2
:10C00000A81F002071C2000891D300088DD300083A
:10C010008FD30008A1C3000805D800080000000065
:10C02000000000000000000000000000B1C1000896
:10C03000F1C30008000000000DC20008A1D30008F1
:10C040008BC200088BC200088BC2000895D3000881
:10C050008BC200088BC200088BC200088BC200088C
:10C0600005C400088BC2000815C400088BC2000874
:10C070008BC200088BC200088BC200088BC200086C
:10C080008BC200088BC200088BC2000800000000B1
:10C090000000000000000000000000001BC40008B9
:10C0A0008BC200086DD400088BC200088BC2000848
:10C0B0008BC200088BC200088BC200088BC200082C
:10C0C0008BC200088BC200088BC200088BC200081C
:10C0D0008BC20008C5D700088BC200080000000012
:10C0E000F5C300088BC200088BC2000800000000E6
:10C0F0000000000000000000000000008BC20008EB
:10C10000000000008BC200088BC200088BC2000830
:10C11000000000000000000000000000000000001F
:10C120008BC200088BC20008A5C300088BC20008A0
:10C130008BC20008000000000000000000000000AA
:10C140000000000000000000000000008BC200089A
:10C15000B1C300088BC20008BDC300088BC2000831
:10C160008BC200088BC20008000000000000000025
:10C1700000000000000000000000000000000000BF
:10C18000000000008BC2000800000000000000005A
:10C190008BC200088BC20008DFF810D000F0EEF868
:10C1A0000048004745D80008AFF30080A81F0020D2
:10C1B0002C4B19680868B0E8F04F80F30988BFF38A
:10C1C0006F8F4FF0000080F311887047000000006F
:10C1D00008480068006880F308884FF0000080F38A
:10C1E000148862B661B6BFF34F8FBFF36F8F00DF65
:10C1F00000BF00BF08ED00E0DFF80C00016841F46B
:10C2000070010160704700BF88ED00E0EFF3098026
:10C21000BFF36F8F134B1A681EF0100F08BF20ED8D
:10C22000108A20E9F04F106009B44FF0500080F3FD
:10C230001188BFF34F8FBFF36F8F02F0C1F84FF03B
:10C24000000080F3118809BC19680868B0E8F04F55
:10C250001EF0100F08BFB0EC108A80F30988BFF3FE
:10C260006F8F704710000020EFF3058070470000CB
:10C270000648804706480047FEE7FEE7FEE7FEE780
:10C28000FEE7FEE7FEE7FEE7FEE7FEE751D4000823
:10C2900099C100082DE9F05F0546002092469B46B3
:10C2A00088460646814640241BE0284641464746CC
:10C2B000224600F053F853465A46C01A914110D313
:10C2C00011461846224600F03AF82D1A67EB01088D
:10C2D0004F4622460120002100F031F817EB0009FB
:10C2E0004E41201EA4F10104DFDC484631462A46B7
:10C2F0004346BDE8F09F40EA01039B0703D009E0F5
:10C3000008C9121F08C0042AFAD203E011F8013B41
:10C3100000F8013B521EF9D27047D2B201E000F89A
:10C32000012B491EFBD270470022F6E710B51346D9
:10C330000A4604461946FFF7F0FF204610BD202AA2
:10C3400004DB203A00FA02F1002070479140C2F16C
:10C35000200320FA03F3194390407047202A04DB9E
:10C36000203A21FA02F00021704721FA02F3D0406E
:10C37000C2F120029140084319467047064C074D10
:10C3800006E0E06840F0010394E8070098471034A5
:10C39000AC42F6D3FFF704FFECED00080CEE00080A
:10C3A000FEE70000014800F097B80000FC0D0020F7
:10C3B000014800F091B80000E80E0020014800F0AC
:10C3C0008BB80000480F002030B50468256825F4BC
:10C3D00080252560046863608368402B036803D070
:10C3E00099600068C26030BD9A600068C16030BD6D
:10C3F00070470000024901204870000300F074B942
:10C4000090000020024901208870042000F06CB9DF
:10C4100090000020102000F067B9202000F064B9DF
:10C420002DE9F0410446876D00F06AF9064694F85C
:10C4300035000025022806D08020606584F834503D
:10C440000120BDE8F0812068016821F0160101603B
:10C450002068416921F080014161206C08B9A06C1D
:10C4600020B12068016821F008010160206801689E
:10C4700021F0010101600CE000F042F9801B052869
:10C4800007D920206065032084F8350084F83450F3
:10C49000D7E720680068C007EED194F85C103F2011
:10C4A0008840B860012084F8350084F834500020BA
:10C4B000C7E790F83510022903D08021416501209B
:10C4C0007047052180F835100068016821F00101EE
:10C4D00001600020704700002DE9F84304464FF04A
:10C4E0000009CDF8009063484FF41651A56D00681F
:10C4F000B0FBF1F72E6894F85C10082000FA01F107
:10C5000031420FD021680A6852070BD50A6822F021
:10C5100004020A6094F85C108840A860606D40F0E6
:10C520000100606594F85C104FF0010808FA01F012
:10C53000304208D021684969090604D5A860606DB9
:10C5400040F00200606594F85C100420884030429E
:10C5500008D021680968890704D5A860606D40F09B
:10C560000400606594F85C1010208840304218D0B8
:10C5700021680968090714D5A86020680168490383
:10C5800004D50068000308D5A16C07E00168C9055F
:10C5900003D4016821F008010160216C09B1204633
:10C5A000884794F85C1020208840304231D02168C0
:10C5B0000968C9062DD5A86094F8350005282068BB
:10C5C000016806D0490347D5006800031DD4616C9B
:10C5D0001CE021F0160101602068416921F0800112
:10C5E0004161206C08B9A06C20B12068016821F07D
:10C5F0000801016094F85C103F208840A86084F82E
:10C60000358084F83490216D1FE0E16B09B120463C
:10C610008847606D00282BD0606DC00714D00520BE
:10C6200084F835002068016821F00101016000985C
:10C63000401C0090B84203D820680068C007F6D1BB
:10C6400084F8358084F83490E16C002910D001B072
:10C650002046BDE8F04308470168C905D5D4016804
:10C6600021F01001016084F8358084F83490CCE723
:10C67000BDE8F8830C0000202DE9F0410446866DEA
:10C6800090F83400002501280DD0012084F83400F2
:10C6900094F835700020012F07D084F8340002256B
:10C6A0002846BDE8F0810220FBE7022784F83570B8
:10C6B00060652046FFF788FE94F85C103F208840B4
:10C6C000B0602068016841F016010160206C20B163
:10C6D0002068016841F0080101602068016841F0AC
:10C6E00001010160DCE77047044910B50A680242A5
:10C6F00002D00860FFF7F7FF10BD0000143C0140B6
:10C7000001488068704700000000002002488168EE
:10C710000278114481607047000000200B4810B57A
:10C72000016841F400710160016841F480610160B9
:10C73000016841F480710160032000F099F80F2036
:10C7400000F006F800F04AF8002010BD003C02405E
:10C7500030B505461C4887B00024016841F001014E
:10C760000160006806A900F00100009001A800F037
:10C770002BF900F049F91549154AB0FBF1F11548BC
:10C78000491E026040F2E732C0E90324C0E9011407
:10C79000846100F04FFB040012D10E4800F078FBDA
:10C7A00004000DD1192000F035F8102D07D2002219
:10C7B0002946192000F03CF80748056000E00124F4
:10C7C00007B0204630BD00004438024040420F0010
:10C7D000000001405C0E0020040000200C4882B0E4
:10C7E000016841F480410160006800F480400090DD
:10C7F0000748001F016841F0805101600068002275
:10C8000000F0805000900F21901E02B000F010B890
:10C8100044380240002809DB00F01F02012191404A
:10C820004009800000F1E020C0F8001170470000CE
:10C83000F0B40E4B1B680C46C3F30223C3F107058B
:10C84000042D00D90425191D072901D2002300E079
:10C85000DB1E012606FA05F1491E214099409E4043
:10C86000761E16403143F0BC00F0CDBF0CED00E069
:10C87000064900F0070208684FF6FF03184040EA37
:10C880000220034A10430860704700000CED00E0EE
:10C890000000FA052DE9F0470E46050065D0DFF8E7
:10C8A0001481D8F80000F7B200F00700B04207D2B8
:10C8B00088F80070D8F8000000F00700B04254D1AA
:10C8C00028683D4C810712D5400703D5206840F405
:10C8D000E05020602878000703D5206840F46040CD
:10C8E00020602068A96820F0F000084320602878C4
:10C8F000C0072DD0304968680839012812D00228B5
:10C9000013D0032811D00968890700292DDA21687E
:10C9100021F0030101432160FFF7F2FE814641F25D
:10C92000883A0EE009688903EFE709688901ECE7B6
:10C93000FFF7E6FEA0EB0901514502D90320BDE84F
:10C94000F0872068696800F00C00B0EB810FEFD130
:10C95000D8F80010404601F00701B14207D907702E
:10C96000006800F00700B04201D00120E7E7287816
:10C97000400705D52068E96820F4E05008432060AE
:10C980002878000706D52068296920F4604040EA2D
:10C99000C100206000F048F82168084AC1F3031183
:10C9A000515CC8400649086006480068FFF7D0FEA1
:10C9B0000020C4E7003C024008380240D4ED0008E3
:10C9C0000C000020040000200F2202600C4A1368B3
:10C9D00003F003034360136803F0F00383601368FC
:10C9E00003F4E053C36012684FF4E05303EAD20249
:10C9F00002610448006800F007000860704700000A
:10CA000008380240003C02400448054900680968B3
:10CA1000044AC1F34231515CC84070470C00002009
:10CA200008380240E4ED0008154810B5006810F021
:10CA30000C02144813D01449042A0FD0082A0ED12E
:10CA40000F4C241F2268236802F03F025B0207D5C7
:10CA50002068C0F38810A0FB010106E0084610BD65
:10CA60002168C1F38811A1FB00010023FFF712FC2C
:10CA70002168C1F30141491C4900B0FBF1F010BD30
:10CA8000083802400024F40040787D012DE9F84F79
:10CA900004006ED02078DFF84C93C007A9F104059C
:10CAA0004AD009F104000168C1F38101012908D0CD
:10CAB0000068C0F3810002280AD1D9F800004002C2
:10CAC00006D52868800337D560680028E1D033E0B8
:10CAD0006068B0F5803F10D0B0F5A02F286810D066
:10CAE00020F480302860286820F480202860606866
:10CAF000A8B1FFF705FE06460DE0286840F4803037
:10CB0000F4E740F480202860F7E700BFFFF7F8FD66
:10CB1000801B642873D828688003F7D50CE0FFF7E2
:10CB2000EFFD064605E000BFFFF7EAFD801B642825
:10CB3000F0D828688003F7D42078DFF8AC8280072B
:10CB40004FF0000A3ED5A748001D016811F00C0FF8
:10CB500008D00068C0F3810002280BD1D9F800008A
:10CB6000400207D42868800716D5E068012800D164
:10CB700012E033E1E068B8B10120C8F80000FFF727
:10CB8000BFFD064605E000BFFFF7BAFD801B022887
:10CB9000C0D828688007F7D52868216920F0F800F8
:10CBA00040EAC10028600DE0C8F800A0FFF7A8FD2A
:10CBB000064604E0FFF7A4FD801B02281FD8286862
:10CBC0008007F7D42078000722D5864F874861690F
:10CBD000703771B101210160FFF792FD064604E054
:10CBE000FFF78EFD801B022809D838688007F7D52B
:10CBF0000EE0C0F800A0FFF783FD064605E082E0E6
:10CC0000FFF77EFD801B02287DD838688007F7D4A7
:10CC10002078400768D5DFF8CCB100270BF13C0B3A
:10CC2000DBF80000C0000BD4DBF8001041F08051AD
:10CC3000CBF80010DBF80000012700F080500090D6
:10CC40006B4E3068C00510D4306840F4807030609E
:10CC5000FFF756FD009005E0FFF752FD0099401ADE
:10CC6000022850D83068C005F6D55E4EA0686C36F4
:10CC700001280FD00528306810D020F00100306066
:10CC8000306820F004003060A068B8B1FFF738FDCC
:10CC900000900FE0306840F00100F4E740F004003D
:10CCA0003060F7E7FFF72CFD0099411A41F2883018
:10CCB000814266D830688007F4D50EE0FFF720FD8A
:10CCC000009007E0FFF71CFD0099411A41F28830FF
:10CCD000814256D830688007F4D42FB1DBF80010B9
:10CCE00021F08051CBF80010A069C8B33D49091D5F
:10CCF0000968C1F3810102294AD00228504607D0B1
:10CD0000C8F8600000E03CE0FFF7FAFC04463BE0B6
:10CD10004746C8F86000FFF7F3FC064605E000BF91
:10CD2000FFF7EEFC801B02282BD828688001F7D47F
:10CD3000D4E907010843A16A2E4A490802EB0141E0
:10CD4000626A41EA8211084394F82C1040EA0161BA
:10CD5000C9F8001001203866FFF7D2FC044606E04F
:10CD60003EE000BFFFF7CCFC001B022809D8286872
:10CD70008001F7D534E000BFFFF7C2FC001B02289A
:10CD800002D90320BDE8F88F28688001F4D427E099
:10CD90000128F7D0D9F80000E26900F4800191423F
:10CDA0001CD1226A00F03F01914217D147F6C071B1
:10CDB000626A0140B1EB821F10D1A26A4FF0FF33CB
:10CDC00000F4403103EB5202B1EB024F06D194F86C
:10CDD0002C1000F07060B0EB016F01D00120D1E7A2
:10CDE0000020CFE70438024000004742800E47424F
:10CDF000007000400000FFFF7047000010B50446BF
:10CE00000068C068400509D52046FFF7F5FF206897
:10CE1000C16801F0800161F49061C16003494FF481
:10CE2000800008600120607710BD0000143C0140C4
:10CE30007047704710B5040003D094F83D0010B15E
:10CE400007E0012010BD002084F83C00204600F0DF
:10CE50001EF8022084F83D00211D206800F00CFB24
:10CE6000012084F8460084F83E0084F83F0084F8EE
:10CE7000400084F8410084F8420084F8430084F8BC
:10CE8000440084F8450084F83D00002010BD704740
:10CE900090F83D10012901D001207047022180F84F
:10CEA0003D100168CA6842F00102CA6000680E497C
:10CEB00088420ED0B0F1804F0BD00C49884208D088
:10CEC0000B49884205D00B49884202D00A49884262
:10CED00004D1816801F00701062903D0016841F0FF
:10CEE0000101016000207047000001400004004083
:10CEF00000080040000C004000400140704770B541
:10CF00000446006801694FF00005C943890715D43C
:10CF1000C168C943890711D4E91E01610120207746
:10CF2000206880698007204602D0FFF7E7FF04E011
:10CF300000F098F8204600F096F8257720680169FF
:10CF4000C943490717D4C168C943490713D46FF0CF
:10CF500004010161022020772068806910F4407F7D
:10CF6000204602D0FFF7CAFF04E000F07BF820461D
:10CF700000F079F8257720680169C943090716D4BC
:10CF8000C168C943090712D46FF008010161042088
:10CF900020772068C0698007204602D0FFF7AEFFE7
:10CFA00004E000F05FF8204600F05DF82577206887
:10CFB0000169C943C90617D4C168C943C90613D456
:10CFC0006FF010010161082020772068C06910F41B
:10CFD000407F204602D0FFF791FF04E000F042F8C6
:10CFE000204600F040F8257720680169C943C90749
:10CFF00008D1C168C943C90704D1891E016120460F
:10D0000000F032F820680169C943090609D4C168F3
:10D01000C943090605D46FF0800101612046FFF77E
:10D0200007FF20680169C943490609D4C168C9439B
:10D03000490605D46FF040010161204600F01EF85A
:10D0400020680169C94389060BD4C168C9438906B0
:10D0500007D46FF0200101612046BDE87040FFF762
:10D06000E8BE70BD7047704700680349884201D12F
:10D07000FFF74CBB7047000000000140704770474D
:10D0800010B504460068406994F83D10C0F3C01024
:10D09000212911D180B12068143050E8001F21F0FF
:10D0A000800140E80012002AF5D1606B08B1FFF75B
:10D0B000B7F9204600F0CEFA2068406994F83E1097
:10D0C000C0F38010222911D180B12068143050E8BB
:10D0D000001F21F0400140E80012002AF5D1A06BAA
:10D0E00008B1FFF79DF9204600F08DFA002010BD31
:10D0F00070470000F8B5016804460868CA684B69C3
:10D1000010F00F0F4FF0000559D003F0010602F4A4
:10D110009077374365D0C10705D0D10503D5216C81
:10D1200041F001012164410705D5D90703D0216CE5
:10D1300041F002012164810705D5D90703D0216C94
:10D1400041F004012164010707D502F020013143B9
:10D1500003D0216C41F008012164216C00293AD0F0
:10D16000800604D5900602D5204600F081FA20689A
:10D170004069216CC0F38010090700D460B32046D9
:10D1800000F041FA20684069400621D5206814303B
:10D1900050E8001F21F0400140E80012002AF5D1BC
:10D1A000A06BA8B16C490165A06BFFF782F900285C
:10D1B00011D0A06B016D01B0BDE8F04008478306B7
:10D1C0000FD593060DD52046BDE8F84000F050BAC3
:10D1D0002046FFF78DFFF8BD2046FFF789FF256445
:10D1E000F8BD266B2023012E79D1C60677D5D60649
:10D1F00075D50868486800904869400640D5A16B1D
:10D20000086840680004000CEAD0A28D8242E7D989
:10D21000E085C869B0F5807F2DD020680C3050E8DB
:10D22000001F21F4807140E80012002AF5D1206827
:10D23000143050E8001F21F0010140E80012002ADC
:10D24000F5D12068143050E8001F21F0400140E87B
:10D250000012002AF5D184F83E30256320680C3096
:10D2600050E8001F21F0100140E80012002AF5D11B
:10D27000A06BFFF7D5F8A08DE18D401A81B229E0AF
:10D28000A08DE18D401A81B2E08D0028A8D0002940
:10D29000A6D020680C3050E8002F22F4907240E8AD
:10D2A0000026002EF5D12068143050E8002F22F01F
:10D2B000010240E80026002EF5D184F83E302563B7
:10D2C00020680C3050E8002F22F0100240E80023C4
:10D2D000002BF5D12046FFF7D2FEF8BDFFE705068B
:10D2E0002BD5150629D594F83D002128F5D1A06845
:10D2F000B0F5805F01D12069B0B1206A411C216284
:10D30000216800784860E08C401E0004000CE08436
:10D31000E3D12068C16821F08001C1602068C16844
:10D3200041F04001C160D8E7206A0088C0F30800DE
:10D330004860206A801C2062E5E74006CDD5500693
:10D34000CBD5CA68204622F04002CA6084F83D303E
:10D3500000F01BF8C1E7000011D5000890F83E303E
:10D36000202B0ED159B152B190F83C30012B08D08E
:10D37000012380F83C300023036300F0D9B9012079
:10D38000704702207047704770477047FEE7FEE71E
:10D39000FEE700000148FFF731BD0000840D0020CA
:10D3A00010B54FF0E020006901F056FB012803D0D2
:10D3B000BDE8104001F0B0B810BD000030B593B02A
:10D3C00030216846FEF7B0FF14210CA8FEF7ACFF31
:10D3D0001D480024016841F080510160006800F0A0
:10D3E000805011901948016841F440410160006883
:10D3F000022500F440401190062000900120029088
:10D4000003901020049006950820CDE90740642081
:10D41000CDE9090504200B906846FFF737FB08B1FA
:10D4200072B6FEE70F20CDE90C054FF48050CDE930
:10D430000E4003210CA81094FFF72CFA002801D00D
:10D4400072B6FEE713B030BD4038024000700040B5
:10D450000448016841F470010160024902488039C2
:10D460000860704788ED00E0008000080148FFF781
:10D4700046BD00005C0E0020F0B502681D4B1E4C3E
:10D480009F031E4D1E4E984207D0B84205D0A042C1
:10D4900003D0A84201D0B04204D122F0700C4A68F7
:10D4A00042EA0C02984210D0B8420ED0A0420CD0F2
:10D4B000A8420AD0B04208D0124CA04205D0124C6B
:10D4C000A04202D0114CA04203D122F44074CA6899
:10D4D00022434C6922F08002224302608A68C262C1
:10D4E0000A688262984201D10969016301214161A0
:10D4F000F0BD0000000001400004004000080040B2
:10D50000000C004000400140004401400048014040
:10D5100010B5806B0021C185C184FFF7E9FD10BD06
:10D5200070B5846B2068406994F83D10C0F3C0105A
:10D530000025212904D118B1E584204600F08AF89D
:10D540002068406994F83E10C0F38010222904D16D
:10D5500018B1E585204600F056F8206C40F0100028
:10D5600020642046FFF7C4FD70BD10B50146806BF6
:10D5700009680968C9052FD40021C18501680C31EB
:10D5800051E8002F22F4807241E80023002BF5D1EE
:10D590000168143151E8002F22F0010241E8002314
:10D5A000002BF5D10168143151E8002F22F0400220
:10D5B00041E80023002BF5D1202180F83E10016BBB
:10D5C000012909D101680C3151E8002F22F0100225
:10D5D00041E80023002BF5D1016B012902D0FFF7B0
:10D5E000D2FE10BD818DFFF74AFD10BD10B5806BD6
:10D5F000016B012902D0FFF7C7FE10BD818D4908DC
:10D60000FFF73DFD10BD01680C3151E8002F22F4F9
:10D61000907241E80023002BF5D10168143151E8E4
:10D62000002F22F0010241E80023002BF5D1016B0D
:10D63000012909D101680C3151E8002F22F01002B4
:10D6400041E80023002BF5D1202180F83E10002175
:10D650000163704701680C3151E8002F22F0C002CD
:10D6600041E80023002BF5D1202180F83D107047C0
:10D6700008B590F83E10222901D0022008BD82682A
:10D680004FF480539A4201D1016921B1816A9A42D3
:10D690001BD04AB10AE00268816A5268C2F30802EC
:10D6A0000A80816A891C08E0026972B102685268C6
:10D6B00002F07F020A70816A491C8162C18D491E95
:10D6C0000904090CC18503D019E002685268F1E72A
:10D6D0000168CA6822F02002CA600168CA6822F4A0
:10D6E0008072CA6001684A6922F001024A61202101
:10D6F00080F83E10016B012903D0FFF744FE0020A3
:10D7000008BD0021016301680C3151E8002F22F0AF
:10D71000100241E80023002BF5D101680A68D20607
:10D7200002D50A6849680091818DFFF7A8FCE6E7F9
:10D7300038B581628285002513460446056422209F
:10D7400084F83E00A26B1C48D063A26B1B48106497
:10D75000A26B1B48D064A06B0A4605652168A06BCC
:10D76000091DFEF789FF206801684068009084F871
:10D770003C50206948B120680C3050E8001F41F44B
:10D78000807140E80012002AF5D12068143050E87A
:10D79000001F41F0010140E80012002AF5D1206885
:10D7A000143050E8001F41F0400140E80012002A08
:10D7B000F5D1002038BD00006BD50008EDD500087C
:10D7C00021D500080C4810B500680168C943C90696
:10D7D0000DD40A4A012111706FF010010160064852
:10D7E000FFF74EFC192206490348FFF7B7FDBDE8D5
:10D7F00010400148FFF77EBCA40E002090000020DE
:10D80000680D0020FEE70907090E002804DB00F17F
:10D81000E02080F80014704700F00F0000F1E020D5
:10D8200080F8141D704702E008C8121F08C1002AC2
:10D83000FAD170477047002001E001C1121F002A91
:10D84000FBD1704706494FF440400860FEF766FF81
:10D85000FFF7B4FD62B600F005F800F015F8FEE73A
:10D8600008ED00E0EFF3058010B16FF005007047A0
:10D870000448016811B14FF0FF3070470121016089
:10D88000002070476000002010B5EFF3058010B154
:10D890006FF0050010BD08480168012902D04FF063
:10D8A000FF3010BD054A002182F8141D02210160DD
:10D8B00000F03AFD002010BD600000200BE000E009
:10D8C0002DE9F041134C0F460546E6682068001D1F
:10D8D00000F0B2FB681C07D137B12168BDE8F04108
:10D8E0000D48091D00F0FABB20683544B54245607B
:10D8F000216805D2A06BBDE8F041091D00F0D6BB40
:10D90000606B091D00F0D2FBA06A854200D2A562BF
:10D91000BDE8F08110000020840500202DE9F041D1
:10D92000054600F0E7FB2D4CA068401CA060206875
:10D930002B4F10B1606930B32BE02560A06801283F
:10D9400027D1002606EB860007EB800000F0A0FB45
:10D95000761C382EF6D3234800F09AFB2148143069
:10D9600000F096FB1F48283000F092FB1D483C3029
:10D9700000F08EFB1B48503000F08AFB19486063B2
:10D980001430A06305E02068E96AC06A884200D8C4
:10D990002560606A401C60626864E86A21698842A8
:10D9A00000D9206100EB800007EB8000291D00F00A
:10D9B00095FB00F0BFFB606900280CD02068E96A85
:10D9C000C06A884207D208494FF080500860BFF310
:10D9D0004F8FBFF36F8FBDE8F08100001000002073
:10D9E000D40000203405002004ED00E038B500F03C
:10D9F00081FB104C2068C8B90F4800F049FB0E4865
:10DA0000143000F045FB0C48E060143020610A4BF4
:10DA10000020F03B009003F1500210210A2000F09A
:10DA200091FD206010B105A100F006FCBDE8384072
:10DA300000F080BB4C00002088060020546D72511D
:10DA40000000000030B4026C0B46002A0BD0C16805
:10DA50001144C1608468A14201D30168C16030BC37
:10DA60001846FEF748BC30BC70472DE9F041856B85
:10DA7000174604460026026C82B1C7B1E068FEF783
:10DA80003AFCE168206C091AE1602268914202D2F6
:10DA9000A168081AE060022F16D017E02068A8B924
:10DAA000A06801F059F806460020A0600EE060680A
:10DAB000FEF721FC216C606808446060A168884220
:10DAC00004D32068606001E005B16D1E6D1CA56384
:10DAD0003046BDE8F08110B5044690F8590058B1C1
:10DAE00001280CD002280FD0502080F31188BFF3FA
:10DAF0004F8FBFF36F8FFEE7206B00F02FFB2046A8
:10DB0000BDE8104000F02ABB10BD0000154E164CB9
:10DB1000A6F29C474FF08058DFF8509012E000BF0B
:10DB200000F0E8FAF068C568281D00F085FAA068E2
:10DB3000401EA0606068401E606000F0FBFA28464E
:10DB4000FFF7C9FF60680028EAD13868012805D9C5
:10DB5000C9F80080BFF34F8FBFF36F8F00F096FAC4
:10DB6000F0E70000700500201000002004ED00E048
:10DB700070B51D46049C51B1C4F80020C4E90F01E2
:10DB80000121204600F012FD84F84C5070BD246045
:10DB9000F4E700002DE9F05F8846DDE90B941546B7
:10DBA000834691009A460A9EA522206BFEF7B5FB9C
:10DBB0006FF00301206B01EB8501084420F007079B
:10DBC000780707D0502080F31188BFF34F8FBFF341
:10DBD0006F8FFEE70025B8F1000F0FD05FF0000057
:10DBE000221818F8001082F8341018F8001011B13B
:10DBF000401C1028F4D384F8435001E084F83450DA
:10DC0000382E00D33726E662C4E91365201D00F0E4
:10DC10004AFA04F1180000F046FA2461C6F138000F
:10DC20006462A061656584F858505246594638468A
:10DC300000F0ECF92060B9F1000F01D0C9F8004004
:10DC4000BDE8F09F30B5114900E011460A688242F4
:10DC5000FBD34B685C18844203D140681844486089
:10DC6000084643681C18944209D1084C183C2468A3
:10DC7000A24209D052681A4442600A6812680260DF
:10DC8000814200D0086030BD0460F9E77C000020CC
:10DC900070B5002441600B4D0061914206D8D11A45
:10DCA0008269914206D2011D286907E09A4203D297
:10DCB000994201D3012403E0011DE86800F0F6F960
:10DCC000204670BD4C00002010B5044600F012FA4A
:10DCD000A06B28B15FF0000400F02CFA204610BDC4
:10DCE0000124F9E730B589B03C4D6EE00498002876
:10DCF00006DADDE90601059A90470498002864DBFE
:10DD0000069C606910B1201D00F096F903A800F090
:10DD1000D7F8024604980A2857D2DFE800F0050534
:10DD2000052D334A05052D3394F8280040F00100F5
:10DD300084F828000599A069059B01442046FFF757
:10DD4000A7FF68B3216A2046884794F82800400757
:10DD50003BD5002000900598A16900234218194680
:10DD6000204601F003F8D8B9502080F31188BFF3A2
:10DD70004F8FBFF36F8FFEE714F8280F20F00100DC
:10DD8000207022E094F8280040F0010084F8280078
:10DD90000598A06128B1811813462046FFF778FF47
:10DDA00013E0502080F31188BFF34F8FBFF36F8FC4
:10DDB000FEE794F82800810703D4204600F0CEF94E
:10DDC00003E020F0010084F82800002204A928685C
:10DDD00000F040FD002889D109B030BD4C00002082
:10DDE0002DE9FC410F46054600F0E2FA01A800F0DB
:10DDF00067F80446019818B100F026FFBDE8FC81E1
:10DE0000254EAFB130690068D0B30027291B3A46D0
:10DE1000306800F025FA00F017FF0028EED11F4906
:10DE20004FF080500860BFF34F8FBFF36F8FE5E76F
:10DE3000A542EBD800F008FFF0682746C068C46828
:10DE4000201D00F0F9F894F82800410719D5A069C1
:10DE50002B4641193A462046FFF71AFFA8B1002089
:10DE60000346014600902A46204600F07FFF60B935
:10DE7000502080F31188BFF34F8FBFF36F8FFEE701
:10DE800007E020F0010084F82800216A2046884736
:10DE9000B4E70127BAE700004C00002004ED00E0E1
:10DEA0000648416B096829B1416BC968C96849686E
:10DEB000816270474FF0FF31FAE700001000002048
:10DEC00070B5054600F0D6FD064E0446B0688442A3
:10DED00003D200F009F8012000E00020286020466D
:10DEE000B46070BD4C000020F8B5194D20E0C0684A
:10DEF000C4680668201D00F09FF8216A2046884704
:10DF000094F82800400713D5A0693044B04206D9E0
:10DF100024616060211DE86800F0C8F808E0002076
:10DF20000346014600903246204600F01FFF38B1FC
:10DF3000E86801680029DAD12969C5E90310F8BD4C
:10DF4000502080F31188BFF34F8FBFF36F8FFEE730
:10DF50004C00002008484068401C4FF0500080F3FF
:10DF6000118804D0BFF34F8FBFF36F8FFEE7BFF36D
:10DF70004F8FBFF36F8FFEE784000020074CE068EF
:10DF8000016841B1C0680021D0F80000FFF728FF08
:10DF9000FFF7A8FEF3E701210020F7E74C0000207F
:10DFA0002DE9F041044600F0A5F894F9455004F13C
:10DFB000240609E0606A48B1304600F00DFE08B161
:10DFC00000F078F96D1E6DB2002DF3DC4FF0FF36D6
:10DFD00084F8456000F0AEF800F08CF894F94450F5
:10DFE00004F1100709E0206948B1384600F0F4FD5B
:10DFF00008B100F05FF96D1E6DB2002DF3DC84F8FE
:10E000004460BDE8F04100F095B8000010B5031F72
:10E010004FF080741C601B1F21F001011960191F53
:10E02000044B0B6014390A60091F6FF00202443878
:10E030000A6010BD55DF0008D0E9013201699A601D
:10E04000D0E901235A604A68824201D182684A605D
:10E05000002202610868401E0860086870470000DE
:10E06000034B036003F15C00086080201060704780
:10E07000B0060020044B036003F15C0008604FF41D
:10E0800080701060704700000C09002070477047D6
:10E0900000F108014FF0FF32C0E90112C1600161D7
:10E0A00000210160704700210161704730B50B68A5
:10E0B0005A1C02D000F1080202E0026904E0224684
:10E0C000546825689D42FAD953684B6099608A600C
:10E0D000516008610168491C016030BD42684A60B6
:10E0E00093688B6093685960916008610168491C6E
:10E0F00001607047502080F31188BFF34F8FBFF34A
:10E100006F8F0A494868401C486001280CD10848B4
:10E11000006810F0FF0F07D0502080F31188BFF384
:10E120004F8FBFF36F8FFEE7704700008400002021
:10E1300004ED00E00849486828B1401E486001D15C
:10E1400080F311887047502080F31188BFF34F8F00
:10E15000BFF36F8FFEE700008400002070B5002839
:10E160002AD0164DA0F1080460686969084207D1F9
:10E17000502080F31188BFF34F8FBFF36F8FFEE7FE
:10E1800022683AB1502080F31188BFF34F8FBFF35C
:10E190006F8FFEE78843606000F00AF96068696885
:10E1A000084468602046FFF74DFD2869401C28613F
:10E1B000BDE8704000F048BD70BD00006400002064
:10E1C0004FF0E02000210161816105494FF47A722E
:10E1D0000968B1FBF2F1491E4161072101617047F5
:10E1E0000C00002010B5FEF73FF8114910280ED39F
:10E1F00000F1E02090F8F0030A78904207D2502016
:10E2000080F31188BFF34F8FBFF36F8FFEE709488C
:10E210000068896800F4E060884207D9502080F3E4
:10E220001188BFF34F8FBFF36F8FFEE710BD000063
:10E23000840000200CED00E010B5084B002200BF68
:10E2400053F832401CB1521C082AF9D310BD43F8D0
:10E25000321003EBC201486010BD000094000020A2
:10E2600070B515460E460446FFF744FF94F9441076
:10E270000020491C01D184F8440094F94510491C40
:10E2800001D184F84500FFF755FFA06B28B92A4655
:10E29000314604F1240000F02BF82046BDE8704020
:10E2A000FFF77EBE02490A6A0260C9684160704792
:10E2B0001000002001490120C861704710000020B3
:10E2C00010B50C4650B1094909681831FFF7EEFE48
:10E2D0002046BDE810400121FFF7F2BA502080F33C
:10E2E0001188BFF34F8FBFF36F8FFEE71000002040
:10E2F00070B514460D4668B10A4909681831FFF730
:10E30000EDFE0CB14FF0FF3521462846BDE87040C8
:10E31000FFF7D6BA502080F31188BFF34F8FBFF3B9
:10E320006F8FFEE71000002030B587B00024039403
:10E3300005AA04A903A80494FFF792FEDDE90301EE
:10E340000094CDE90110002315A11748059A00F0AB
:10E3500057FB164D0028E8621FD000F0D7FC0128BB
:10E3600009D0401C19D1502080F31188BFF34F8F82
:10E37000BFF36F8FFEE7502080F31188BFF34F8FFC
:10E38000BFF36F8F4FF0FF30A86201206861EC602F
:10E3900007B0BDE8304000F045B807B030BD000020
:10E3A00049444C45000000000DDB0008100000202F
:10E3B0000248016B491C01637047000010000020F7
:10E3C000164810B5016B11B10121C16110BD0021CA
:10E3D000C1610169124A01E0B9B1491E01EB810333
:10E3E00052F82330002BF7D001EB810302EB8302BC
:10E3F00002F1080453685B685360A34201D15B6873
:10E400005360DA680260016110BD502080F311880A
:10E41000BFF34F8FBFF36F8FFEE7000010000020A7
:10E42000D40000201CB537480168374A914207D113
:10E43000502080F31188BFF34F8FBFF36F8FFEE73B
:10E4400000683149491E884207D1502080F3118865
:10E45000BFF34F8FBFF36F8FFEE72C490878019011
:10E46000FF20087008788DF800009DF800009DF8E6
:10E47000002000F0F000904207D0502080F3118877
:10E48000BFF34F8FBFF36F8FFEE79DF80000204C66
:10E4900000F0500020700720A06005E09DF80020EB
:10E4A00052008DF80020401E9DF800201206F5D481
:10E4B000A060032807D0502080F31188BFF34F8F4E
:10E4C000BFF36F8FFEE74FF44070A06001980870B3
:10E4D0000C482030016841F470010160016841F08E
:10E4E00070410160FFF76CFE00206060FDF784FE64
:10E4F0000848016841F040410160FDF769FE0020D5
:10E500001CBD000000ED00E071C20F4100E400E01E
:10E510008400002034EF00E010B5502080F3118813
:10E52000BFF34F8FBFF36F8F00F0AAFA18B1044901
:10E530004FF080500860002080F3118810BD00006B
:10E5400004ED00E038B5049D18B153B1CAB181B1F2
:10E5500020E0502080F31188BFF34F8FBFF36F8FFF
:10E56000FEE7502080F31188BFF34F8FBFF36F8F0A
:10E57000FEE7502080F31188BFF34F8FBFF36F8FFA
:10E58000FEE739B1502080F31188BFF34F8FBFF3FE
:10E590006F8FFEE750241C46012384F846302B463B
:10E5A0000094FFF7E5FA204638BD000070B50D462F
:10E5B000040025D0FFF79EFDD4E90F20216802FB5F
:10E5C0000011A1600021A163216861600A46D4E9BD
:10E5D0000F01401E00FB0121E16021464FF0FF309A
:10E5E00001F8440F487004F110008DB1FFF750FDA1
:10E5F00004F12400FFF74CFDFFF79CFD012070BDE6
:10E60000502080F31188BFF34F8FBFF36F8FFEE769
:10E6100021690029F0D000F0DFFA0028ECD004498D
:10E620004FF080500860BFF34F8FBFF36F8FE3E769
:10E6300004ED00E02DE9FF4782B01D468A464FF009
:10E640000008040003D0BAF1000F08D011E05020F8
:10E6500080F31188BFF34F8FBFF36F8FFEE7206CFD
:10E6600038B1502080F31188BFF34F8FBFF36F8F05
:10E67000FEE7022D0AD1E06B012807D0502080F37D
:10E680001188BFF34F8FBFF36F8FFEE700F0E4F9FF
:10E690003F4F4FF000094FF0805648B9049838B109
:10E6A000502080F31188BFF34F8FBFF36F8FFEE7C9
:10E6B000FFF720FDA06BE16B884207D3022D05D048
:10E6C0000498D0B1B8F1000F1AD01EE02A46514686
:10E6D0002046FFF7CAF9616A19B104F1240000F07D
:10E6E0007BFA20B13E60BFF34F8FBFF36F8FFFF710
:10E6F00021FD012006B0BDE8F087FFF71BFD22E0F9
:10E700006846FFF7CFFD4FF00108FFF713FDFFF755
:10E710004FFEFFF7EFFC94F94400401C01D184F850
:10E72000449094F94500401C01D184F84590FFF7CE
:10E7300001FD04A9684600F029F930B12046FFF731
:10E740002FFC00F081FA0020D4E7FFF7D3FCA06B88
:10E75000E16B884213D1FFF7EDFC04F1100004993E
:10E76000FFF7AEFD2046FFF71BFC00F06DFA002816
:10E770009ED13E60BFF34F8FBFF36F8F98E7FFF7D7
:10E78000D9FC2046FFF70CFC00F05EFA90E7000091
:10E7900004ED00E02DE9F0471F469046894604004D
:10E7A00003D0B9F1000F08D011E0502080F3118898
:10E7B000BFF34F8FBFF36F8FFEE7206C38B150204F
:10E7C00080F31188BFF34F8FBFF36F8FFEE7022FE7
:10E7D0000AD1E06B012807D0502080F31188BFF3E5
:10E7E0004F8FBFF36F8FFEE7FFF7FCFC5020EFF376
:10E7F000118680F31188BFF34F8FBFF36F8FA06B2B
:10E80000E16B884206D3022F04D0002086F31188E2
:10E81000BDE8F08794F94550A06B3A46494620463A
:10E82000FFF723F9681C04D06D1C84F845500120C3
:10E83000ECE7606A0028FAD004F1240000F0CCF97B
:10E840000028F4D0B8F1000FF1D00121C8F8001071
:10E85000EDE700002DE9F747002683B08A46040063
:10E8600003D0BAF1000F08D011E0502080F31188D6
:10E87000BFF34F8FBFF36F8FFEE7206C38B150208E
:10E8800080F31188BFF34F8FBFF36F8FFEE700F067
:10E89000E3F8DFF8F4804FF000094FF0805748B9F3
:10E8A000059838B1502080F31188BFF34F8FBFF324
:10E8B0006F8FFEE7FFF71EFCA56BC5B151462046E2
:10E8C000FFF7C0F86D1EA563206950B104F1100078
:10E8D00000F082F928B1C8F80070BFF34F8FBFF382
:10E8E0006F8FFFF727FC012006B0BDE8F087059881
:10E8F00008B11EB106E0FFF71DFC27E06846FFF7F0
:10E90000D1FC0126FFF716FCFFF752FDFFF7F2FBE3
:10E9100094F94400401C01D184F8449094F94500D6
:10E92000401C01D184F84590FFF704FC05A9684616
:10E9300000F02CF8002820460AD0FFF731FB00F049
:10E9400083F92046FFF7C0F90028B3D00020CBE7B9
:10E95000FFF7BAF990B104F124000599FFF7B0FC74
:10E960002046FFF71DFB00F06FF90028A2D1C8F880
:10E970000070BFF34F8FBFF36F8F9BE72046FFF709
:10E980000FFB00F061F995E704ED00E02DE9F0419F
:10E990000C46050011D0C4B1FFF7ACFB174BDA6889
:10E9A0006E682068911B471C17D02F681B6A9F4216
:10E9B00019D0964217D8012410E0502080F3118816
:10E9C000BFF34F8FBFF36F8FFEE7502080F31188A6
:10E9D000BFF34F8FBFF36F8FFEE70024FFF7AAFB53
:10E9E0002046BDE8F081884205D9401A20602846BB
:10E9F000FFF758FCF1E700202060DCE71000002062
:10EA0000F0B585B0DDE90B640A9DA6B1DCB15C27E9
:10EA100000972663022684F85960002604AFCDE9EA
:10EA20000246CDE90057FFF7B5F82046FEF776FF1E
:10EA3000049805B0F0BD502080F31188BFF34F8FCC
:10EA4000BFF36F8FFEE7502080F31188BFF34F8F25
:10EA5000BFF36F8FFEE700000548416919B1006BF5
:10EA600018B1002070470120704702207047000055
:10EA7000100000200148C06870470000100000200E
:10EA80002DE9F041324C0027206B38B1A069401CC1
:10EA9000A061FFF7FCFA3846BDE8F081E668761C15
:10EAA000E66013D1606B006838B1502080F31188A4
:10EAB000BFF34F8FBFF36F8FFEE7606BA16B616396
:10EAC000A063206A401C2062FFF7EAF9A06ADFF821
:10EAD0008480864209D3606B006890B1606BC06827
:10EAE000C568686886420FD2A0622068C06A00EBE1
:10EAF000800158F82100012800D90127A069F8B148
:10EB000020E04FF0FF30EFE7281DFFF795FAA86AE5
:10EB100018B105F11800FFF78FFAE86A21698842F9
:10EB200000D9206100EB800108EB8100291DFFF76F
:10EB3000D5FAE86A2168C96A8842CCD30127CAE7B6
:10EB4000FFF7A5FAE0690028A5D00127A3E7000098
:10EB500010000020D400002070B504004FF0000128
:10EB600033D01B4D2868844207D0502080F3118891
:10EB7000BFF34F8FBFF36F8FFEE7206D38B1401E9C
:10EB80002065E36CE26A9A421FD040B11DE050203C
:10EB900080F31188BFF34F8FBFF36F8FFEE7201D07
:10EBA000FFF74AFAE06CE062C0F13800A061E06A69
:10EBB0002969884200D92861064900EB800001EBF1
:10EBC0008000211DFFF78AFA0121084670BD000070
:10EBD00010000020D400002070B5C068C46854B193
:10EBE00004F118000646FFF727FA144D286B50B1C0
:10EBF0003146134815E0502080F31188BFF34F8F42
:10EC0000BFF36F8FFEE7201DFFF716FAE06A296950
:10EC1000884200D928610B4900EB800001EB80009D
:10EC2000211DFFF75BFAE06A2968C96A884202D9A8
:10EC30000120E86170BD002070BD000010000020C0
:10EC40005C050020D40000202DE9F0472C4D002465
:10EC50002746286B38B1FFF74DFA286B401E286312
:10EC6000286B40B146E0502080F31188BFF34F8FEE
:10EC7000BFF36F8FFEE7A968224E0120D1B3A6F53E
:10EC8000916980463068E0B1F068C46804F118000A
:10EC9000FFF7D2F9201DFFF7CFF9E06A2969884212
:10ECA00000D9286100EB800109EB8100211DFFF7ED
:10ECB00015FAE06A2968C96A8842E3D3C5F81C805E
:10ECC000E0E70CB1FFF7ECF8AC694CB14FEA08068D
:10ECD000FFF7D6FE00B1EE61641EF9D10020A861F5
:10ECE000E86938B10849012738070860BFF34F8F3A
:10ECF000BFF36F8FFFF71EFA3846BDE8F0870000BC
:10ED0000100000205C05002004ED00E010B586B086
:10ED1000FEF76CFE114C2068B8B1002003900490FF
:10ED200005AA04A903A8FFF7A5F9DDE9032102203C
:10ED30008DE8070000230AA10B48059AFFF760FE43
:10ED4000606010B106B0012010BD502080F3118822
:10ED5000BFF34F8FBFF36F8FFEE700004C00002022
:10ED6000546D7220537663007DDF00082DE9FF416A
:10ED70001E46134602000A9D4FF0000016D0144CA8
:10ED80002768002F0FD0CDE900130292062917DA69
:10ED9000FFF762FE02284FF000030FD00022694601
:10EDA0002068FFF747FC04B0BDE8F081502080F3F5
:10EDB0001188BFF34F8FBFF36F8FFEE72A46EEE750
:10EDC0000023324669463846FFF7E4FCEBE70000D3
:10EDD0004C000020000000000000000001020304BD
:10EDE0000607080900000000010203040CEE0008F9
:10EDF000000000209400000026D80008A0EE0008C3
:10EE000094000020141F000036D800080100000004
:10EE100010000000000000000024F40000000000CA
:10EE200000000000000000000000000000000000E2
:10EE300000000000000000000000000000000000D2
:10EE400000000000000000000000000000000000C2
:10EE500000000000000000000000000000000000B2
:10EE600000000000000000000000000000000000A2
:10EE70000000000000000000000000000000000092
:10EE80000000000000000000000000000000000082
:10EE900000000000AAAAAAAA0000000000000000CA
:040000050800C19995
:00000001FF
